{
  "_format": "hh-sol-artifact-1",
  "contractName": "RectBOXV2",
  "sourceName": "contracts/TycoonNFT.sol",
  "abi": [
    {
      "inputs": [],
      "stateMutability": "nonpayable",
      "type": "constructor"
    },
    {
      "anonymous": false,
      "inputs": [
        {
          "indexed": true,
          "internalType": "address",
          "name": "owner",
          "type": "address"
        },
        {
          "indexed": true,
          "internalType": "address",
          "name": "approved",
          "type": "address"
        },
        {
          "indexed": true,
          "internalType": "uint256",
          "name": "tokenId",
          "type": "uint256"
        }
      ],
      "name": "Approval",
      "type": "event"
    },
    {
      "anonymous": false,
      "inputs": [
        {
          "indexed": true,
          "internalType": "address",
          "name": "owner",
          "type": "address"
        },
        {
          "indexed": true,
          "internalType": "address",
          "name": "operator",
          "type": "address"
        },
        {
          "indexed": false,
          "internalType": "bool",
          "name": "approved",
          "type": "bool"
        }
      ],
      "name": "ApprovalForAll",
      "type": "event"
    },
    {
      "anonymous": false,
      "inputs": [
        {
          "indexed": false,
          "internalType": "address",
          "name": "sender",
          "type": "address"
        },
        {
          "indexed": false,
          "internalType": "uint256",
          "name": "tokenId",
          "type": "uint256"
        }
      ],
      "name": "NewEpicNFTMinted",
      "type": "event"
    },
    {
      "anonymous": false,
      "inputs": [
        {
          "indexed": true,
          "internalType": "address",
          "name": "from",
          "type": "address"
        },
        {
          "indexed": true,
          "internalType": "address",
          "name": "to",
          "type": "address"
        },
        {
          "indexed": true,
          "internalType": "uint256",
          "name": "tokenId",
          "type": "uint256"
        }
      ],
      "name": "Transfer",
      "type": "event"
    },
    {
      "inputs": [
        {
          "internalType": "address",
          "name": "to",
          "type": "address"
        },
        {
          "internalType": "uint256",
          "name": "tokenId",
          "type": "uint256"
        }
      ],
      "name": "approve",
      "outputs": [],
      "stateMutability": "nonpayable",
      "type": "function"
    },
    {
      "inputs": [
        {
          "internalType": "address",
          "name": "owner",
          "type": "address"
        }
      ],
      "name": "balanceOf",
      "outputs": [
        {
          "internalType": "uint256",
          "name": "",
          "type": "uint256"
        }
      ],
      "stateMutability": "view",
      "type": "function"
    },
    {
      "inputs": [
        {
          "internalType": "uint256",
          "name": "tokenId",
          "type": "uint256"
        }
      ],
      "name": "getApproved",
      "outputs": [
        {
          "internalType": "address",
          "name": "",
          "type": "address"
        }
      ],
      "stateMutability": "view",
      "type": "function"
    },
    {
      "inputs": [
        {
          "internalType": "address",
          "name": "owner",
          "type": "address"
        },
        {
          "internalType": "address",
          "name": "operator",
          "type": "address"
        }
      ],
      "name": "isApprovedForAll",
      "outputs": [
        {
          "internalType": "bool",
          "name": "",
          "type": "bool"
        }
      ],
      "stateMutability": "view",
      "type": "function"
    },
    {
      "inputs": [],
      "name": "makeAnEpicNFT",
      "outputs": [],
      "stateMutability": "nonpayable",
      "type": "function"
    },
    {
      "inputs": [],
      "name": "name",
      "outputs": [
        {
          "internalType": "string",
          "name": "",
          "type": "string"
        }
      ],
      "stateMutability": "view",
      "type": "function"
    },
    {
      "inputs": [
        {
          "internalType": "uint256",
          "name": "tokenId",
          "type": "uint256"
        }
      ],
      "name": "ownerOf",
      "outputs": [
        {
          "internalType": "address",
          "name": "",
          "type": "address"
        }
      ],
      "stateMutability": "view",
      "type": "function"
    },
    {
      "inputs": [
        {
          "internalType": "address",
          "name": "from",
          "type": "address"
        },
        {
          "internalType": "address",
          "name": "to",
          "type": "address"
        },
        {
          "internalType": "uint256",
          "name": "tokenId",
          "type": "uint256"
        }
      ],
      "name": "safeTransferFrom",
      "outputs": [],
      "stateMutability": "nonpayable",
      "type": "function"
    },
    {
      "inputs": [
        {
          "internalType": "address",
          "name": "from",
          "type": "address"
        },
        {
          "internalType": "address",
          "name": "to",
          "type": "address"
        },
        {
          "internalType": "uint256",
          "name": "tokenId",
          "type": "uint256"
        },
        {
          "internalType": "bytes",
          "name": "_data",
          "type": "bytes"
        }
      ],
      "name": "safeTransferFrom",
      "outputs": [],
      "stateMutability": "nonpayable",
      "type": "function"
    },
    {
      "inputs": [
        {
          "internalType": "address",
          "name": "operator",
          "type": "address"
        },
        {
          "internalType": "bool",
          "name": "approved",
          "type": "bool"
        }
      ],
      "name": "setApprovalForAll",
      "outputs": [],
      "stateMutability": "nonpayable",
      "type": "function"
    },
    {
      "inputs": [
        {
          "internalType": "bytes4",
          "name": "interfaceId",
          "type": "bytes4"
        }
      ],
      "name": "supportsInterface",
      "outputs": [
        {
          "internalType": "bool",
          "name": "",
          "type": "bool"
        }
      ],
      "stateMutability": "view",
      "type": "function"
    },
    {
      "inputs": [],
      "name": "symbol",
      "outputs": [
        {
          "internalType": "string",
          "name": "",
          "type": "string"
        }
      ],
      "stateMutability": "view",
      "type": "function"
    },
    {
      "inputs": [
        {
          "internalType": "uint256",
          "name": "tokenId",
          "type": "uint256"
        }
      ],
      "name": "tokenURI",
      "outputs": [
        {
          "internalType": "string",
          "name": "",
          "type": "string"
        }
      ],
      "stateMutability": "view",
      "type": "function"
    },
    {
      "inputs": [
        {
          "internalType": "address",
          "name": "from",
          "type": "address"
        },
        {
          "internalType": "address",
          "name": "to",
          "type": "address"
        },
        {
          "internalType": "uint256",
          "name": "tokenId",
          "type": "uint256"
        }
      ],
      "name": "transferFrom",
      "outputs": [],
      "stateMutability": "nonpayable",
      "type": "function"
    }
  ],
  "bytecode": "0x60806040523480156200001157600080fd5b506040518060400160405280600c81526020017f52656374424f5856324e465400000000000000000000000000000000000000008152506040518060400160405280600981526020017f52656374424f5856320000000000000000000000000000000000000000000000815250816000908051906020019062000096929190620001cf565b508060019080519060200190620000af929190620001cf565b505050620000fd6040518060400160405280601c81526020017f48656c6c6f20676f6f64206f6c6420667269656e642e20576f616821000000008152506200010360201b62000c2c1760201c565b620003ac565b620001a3816040516024016200011a9190620002c0565b6040516020818303038152906040527f41304fac000000000000000000000000000000000000000000000000000000007bffffffffffffffffffffffffffffffffffffffffffffffffffffffff19166020820180517bffffffffffffffffffffffffffffffffffffffffffffffffffffffff8381831617835250505050620001a660201b60201c565b50565b60008151905060006a636f6e736f6c652e6c6f679050602083016000808483855afa5050505050565b828054620001dd9062000336565b90600052602060002090601f0160209004810192826200020157600085556200024d565b82601f106200021c57805160ff19168380011785556200024d565b828001600101855582156200024d579182015b828111156200024c5782518255916020019190600101906200022f565b5b5090506200025c919062000260565b5090565b5b808211156200027b57600081600090555060010162000261565b5090565b60006200028c82620002e4565b620002988185620002ef565b9350620002aa81856020860162000300565b620002b5816200039b565b840191505092915050565b60006020820190508181036000830152620002dc81846200027f565b905092915050565b600081519050919050565b600082825260208201905092915050565b60005b838110156200032057808201518184015260208101905062000303565b8381111562000330576000848401525b50505050565b600060028204905060018216806200034f57607f821691505b602082108114156200036657620003656200036c565b5b50919050565b7f4e487b7100000000000000000000000000000000000000000000000000000000600052602260045260246000fd5b6000601f19601f8301169050919050565b61339780620003bc6000396000f3fe608060405234801561001057600080fd5b50600436106100ea5760003560e01c806370a082311161008c578063b88d4fde11610066578063b88d4fde1461025b578063c87b56dd14610277578063de9d132f146102a7578063e985e9c5146102b1576100ea565b806370a08231146101f157806395d89b4114610221578063a22cb4651461023f576100ea565b8063095ea7b3116100c8578063095ea7b31461016d57806323b872dd1461018957806342842e0e146101a55780636352211e146101c1576100ea565b806301ffc9a7146100ef57806306fdde031461011f578063081812fc1461013d575b600080fd5b61010960048036038101906101049190612025565b6102e1565b604051610116919061255b565b60405180910390f35b6101276103c3565b6040516101349190612576565b60405180910390f35b61015760048036038101906101529190612077565b610455565b60405161016491906124cb565b60405180910390f35b61018760048036038101906101829190611fe9565b6104da565b005b6101a3600480360381019061019e9190611ee3565b6105f2565b005b6101bf60048036038101906101ba9190611ee3565b610652565b005b6101db60048036038101906101d69190612077565b610672565b6040516101e891906124cb565b60405180910390f35b61020b60048036038101906102069190611e7e565b610724565b60405161021891906127d6565b60405180910390f35b6102296107dc565b6040516102369190612576565b60405180910390f35b61025960048036038101906102549190611fad565b61086e565b005b61027560048036038101906102709190611f32565b610884565b005b610291600480360381019061028c9190612077565b6108e6565b60405161029e9190612576565b60405180910390f35b6102af610a38565b005b6102cb60048036038101906102c69190611ea7565b610b98565b6040516102d8919061255b565b60405180910390f35b60007f80ac58cd000000000000000000000000000000000000000000000000000000007bffffffffffffffffffffffffffffffffffffffffffffffffffffffff1916827bffffffffffffffffffffffffffffffffffffffffffffffffffffffff191614806103ac57507f5b5e139f000000000000000000000000000000000000000000000000000000007bffffffffffffffffffffffffffffffffffffffffffffffffffffffff1916827bffffffffffffffffffffffffffffffffffffffffffffffffffffffff1916145b806103bc57506103bb82610cc5565b5b9050919050565b6060600080546103d290612a55565b80601f01602080910402602001604051908101604052809291908181526020018280546103fe90612a55565b801561044b5780601f106104205761010080835404028352916020019161044b565b820191906000526020600020905b81548152906001019060200180831161042e57829003601f168201915b5050505050905090565b600061046082610d2f565b61049f576040517f08c379a000000000000000000000000000000000000000000000000000000000815260040161049690612756565b60405180910390fd5b6004600083815260200190815260200160002060009054906101000a900473ffffffffffffffffffffffffffffffffffffffff169050919050565b60006104e582610672565b90508073ffffffffffffffffffffffffffffffffffffffff168373ffffffffffffffffffffffffffffffffffffffff161415610556576040517f08c379a000000000000000000000000000000000000000000000000000000000815260040161054d90612796565b60405180910390fd5b8073ffffffffffffffffffffffffffffffffffffffff16610575610d9b565b73ffffffffffffffffffffffffffffffffffffffff1614806105a457506105a38161059e610d9b565b610b98565b5b6105e3576040517f08c379a00000000000000000000000000000000000000000000000000000000081526004016105da90612696565b60405180910390fd5b6105ed8383610da3565b505050565b6106036105fd610d9b565b82610e5c565b610642576040517f08c379a0000000000000000000000000000000000000000000000000000000008152600401610639906127b6565b60405180910390fd5b61064d838383610f3a565b505050565b61066d83838360405180602001604052806000815250610884565b505050565b6000806002600084815260200190815260200160002060009054906101000a900473ffffffffffffffffffffffffffffffffffffffff169050600073ffffffffffffffffffffffffffffffffffffffff168173ffffffffffffffffffffffffffffffffffffffff16141561071b576040517f08c379a0000000000000000000000000000000000000000000000000000000008152600401610712906126d6565b60405180910390fd5b80915050919050565b60008073ffffffffffffffffffffffffffffffffffffffff168273ffffffffffffffffffffffffffffffffffffffff161415610795576040517f08c379a000000000000000000000000000000000000000000000000000000000815260040161078c906126b6565b60405180910390fd5b600360008373ffffffffffffffffffffffffffffffffffffffff1673ffffffffffffffffffffffffffffffffffffffff168152602001908152602001600020549050919050565b6060600180546107eb90612a55565b80601f016020809104026020016040519081016040528092919081815260200182805461081790612a55565b80156108645780601f1061083957610100808354040283529160200191610864565b820191906000526020600020905b81548152906001019060200180831161084757829003601f168201915b5050505050905090565b610880610879610d9b565b83836111a1565b5050565b61089561088f610d9b565b83610e5c565b6108d4576040517f08c379a00000000000000000000000000000000000000000000000000000000081526004016108cb906127b6565b60405180910390fd5b6108e08484848461130e565b50505050565b60606108f182610d2f565b610930576040517f08c379a000000000000000000000000000000000000000000000000000000000815260040161092790612736565b60405180910390fd5b600060066000848152602001908152602001600020805461095090612a55565b80601f016020809104026020016040519081016040528092919081815260200182805461097c90612a55565b80156109c95780601f1061099e576101008083540402835291602001916109c9565b820191906000526020600020905b8154815290600101906020018083116109ac57829003601f168201915b5050505050905060006109da61136a565b90506000815114156109f0578192505050610a33565b600082511115610a25578082604051602001610a0d92919061244f565b60405160208183030381529060405292505050610a33565b610a2e84611381565b925050505b919050565b6000610a446007611428565b90506000610a6e604051602001610a5a90612473565b604051602081830303815290604052611436565b9050600081604051602001610a8391906124a9565b6040516020818303038152906040529050610ad26040518060400160405280601581526020017f0a2d2d2d2d2d2d2d2d2d2d2d2d2d2d2d2d2d2d2d2d0000000000000000000000815250610c2c565b610adb81610c2c565b610b196040518060400160405280601581526020017f2d2d2d2d2d2d2d2d2d2d2d2d2d2d2d2d2d2d2d2d0a0000000000000000000000815250610c2c565b610b2333846115f4565b610b2d8382611612565b610b376007611686565b610b5a6040518060600160405280602581526020016132fd60259139843361169c565b7febb98688741ffa4c7589bf325de30cf7becb63de567842e1ccdb6cb949fdc82c3384604051610b8b929190612532565b60405180910390a1505050565b6000600560008473ffffffffffffffffffffffffffffffffffffffff1673ffffffffffffffffffffffffffffffffffffffff16815260200190815260200160002060008373ffffffffffffffffffffffffffffffffffffffff1673ffffffffffffffffffffffffffffffffffffffff16815260200190815260200160002060009054906101000a900460ff16905092915050565b610cc281604051602401610c409190612576565b6040516020818303038152906040527f41304fac000000000000000000000000000000000000000000000000000000007bffffffffffffffffffffffffffffffffffffffffffffffffffffffff19166020820180517bffffffffffffffffffffffffffffffffffffffffffffffffffffffff838183161783525050505061173b565b50565b60007f01ffc9a7000000000000000000000000000000000000000000000000000000007bffffffffffffffffffffffffffffffffffffffffffffffffffffffff1916827bffffffffffffffffffffffffffffffffffffffffffffffffffffffff1916149050919050565b60008073ffffffffffffffffffffffffffffffffffffffff166002600084815260200190815260200160002060009054906101000a900473ffffffffffffffffffffffffffffffffffffffff1673ffffffffffffffffffffffffffffffffffffffff1614159050919050565b600033905090565b816004600083815260200190815260200160002060006101000a81548173ffffffffffffffffffffffffffffffffffffffff021916908373ffffffffffffffffffffffffffffffffffffffff160217905550808273ffffffffffffffffffffffffffffffffffffffff16610e1683610672565b73ffffffffffffffffffffffffffffffffffffffff167f8c5be1e5ebec7d5bd14f71427d1e84f3dd0314c0f7b2291e5b200ac8c7c3b92560405160405180910390a45050565b6000610e6782610d2f565b610ea6576040517f08c379a0000000000000000000000000000000000000000000000000000000008152600401610e9d90612676565b60405180910390fd5b6000610eb183610672565b90508073ffffffffffffffffffffffffffffffffffffffff168473ffffffffffffffffffffffffffffffffffffffff161480610ef35750610ef28185610b98565b5b80610f3157508373ffffffffffffffffffffffffffffffffffffffff16610f1984610455565b73ffffffffffffffffffffffffffffffffffffffff16145b91505092915050565b8273ffffffffffffffffffffffffffffffffffffffff16610f5a82610672565b73ffffffffffffffffffffffffffffffffffffffff1614610fb0576040517f08c379a0000000000000000000000000000000000000000000000000000000008152600401610fa7906125f6565b60405180910390fd5b600073ffffffffffffffffffffffffffffffffffffffff168273ffffffffffffffffffffffffffffffffffffffff161415611020576040517f08c379a000000000000000000000000000000000000000000000000000000000815260040161101790612636565b60405180910390fd5b61102b838383611764565b611036600082610da3565b6001600360008573ffffffffffffffffffffffffffffffffffffffff1673ffffffffffffffffffffffffffffffffffffffff1681526020019081526020016000206000828254611086919061296b565b925050819055506001600360008473ffffffffffffffffffffffffffffffffffffffff1673ffffffffffffffffffffffffffffffffffffffff16815260200190815260200160002060008282546110dd919061288a565b92505081905550816002600083815260200190815260200160002060006101000a81548173ffffffffffffffffffffffffffffffffffffffff021916908373ffffffffffffffffffffffffffffffffffffffff160217905550808273ffffffffffffffffffffffffffffffffffffffff168473ffffffffffffffffffffffffffffffffffffffff167fddf252ad1be2c89b69c2b068fc378daa952ba7f163c4a11628f55a4df523b3ef60405160405180910390a461119c838383611769565b505050565b8173ffffffffffffffffffffffffffffffffffffffff168373ffffffffffffffffffffffffffffffffffffffff161415611210576040517f08c379a000000000000000000000000000000000000000000000000000000000815260040161120790612656565b60405180910390fd5b80600560008573ffffffffffffffffffffffffffffffffffffffff1673ffffffffffffffffffffffffffffffffffffffff16815260200190815260200160002060008473ffffffffffffffffffffffffffffffffffffffff1673ffffffffffffffffffffffffffffffffffffffff16815260200190815260200160002060006101000a81548160ff0219169083151502179055508173ffffffffffffffffffffffffffffffffffffffff168373ffffffffffffffffffffffffffffffffffffffff167f17307eab39ab6107e8899845ad3d59bd9653f200f220920489ca2b5937696c3183604051611301919061255b565b60405180910390a3505050565b611319848484610f3a565b6113258484848461176e565b611364576040517f08c379a000000000000000000000000000000000000000000000000000000000815260040161135b906125d6565b60405180910390fd5b50505050565b606060405180602001604052806000815250905090565b606061138c82610d2f565b6113cb576040517f08c379a00000000000000000000000000000000000000000000000000000000081526004016113c290612776565b60405180910390fd5b60006113d561136a565b905060008151116113f55760405180602001604052806000815250611420565b806113ff84611905565b60405160200161141092919061244f565b6040516020818303038152906040525b915050919050565b600081600001549050919050565b6060600082519050600081141561145f57604051806020016040528060008152509150506115ef565b60006003600283611470919061288a565b61147a91906128e0565b60046114869190612911565b90506000602082611497919061288a565b67ffffffffffffffff8111156114d6577f4e487b7100000000000000000000000000000000000000000000000000000000600052604160045260246000fd5b6040519080825280601f01601f1916602001820160405280156115085781602001600182028036833780820191505090505b5090506000604051806060016040528060408152602001613322604091399050600181016020830160005b868110156115ac5760038101905062ffffff818a015116603f8160121c168401518060081b905060ff603f83600c1c1686015116810190508060081b905060ff603f8360061c1686015116810190508060081b905060ff603f831686015116810190508060e01b90508084526004840193505050611533565b5060038606600181146115c657600281146115d6576115e1565b613d3d60f01b60028303526115e1565b603d60f81b60018303525b508484525050819450505050505b919050565b61160e828260405180602001604052806000815250611ab2565b5050565b61161b82610d2f565b61165a576040517f08c379a0000000000000000000000000000000000000000000000000000000008152600401611651906126f6565b60405180910390fd5b80600660008481526020019081526020016000209080519060200190611681929190611d0a565b505050565b6001816000016000828254019250508190555050565b6117368383836040516024016116b493929190612598565b6040516020818303038152906040527fe3849f79000000000000000000000000000000000000000000000000000000007bffffffffffffffffffffffffffffffffffffffffffffffffffffffff19166020820180517bffffffffffffffffffffffffffffffffffffffffffffffffffffffff838183161783525050505061173b565b505050565b60008151905060006a636f6e736f6c652e6c6f679050602083016000808483855afa5050505050565b505050565b505050565b600061178f8473ffffffffffffffffffffffffffffffffffffffff16611b0d565b156118f8578373ffffffffffffffffffffffffffffffffffffffff1663150b7a026117b8610d9b565b8786866040518563ffffffff1660e01b81526004016117da94939291906124e6565b602060405180830381600087803b1580156117f457600080fd5b505af192505050801561182557506040513d601f19601f82011682018060405250810190611822919061204e565b60015b6118a8573d8060008114611855576040519150601f19603f3d011682016040523d82523d6000602084013e61185a565b606091505b506000815114156118a0576040517f08c379a0000000000000000000000000000000000000000000000000000000008152600401611897906125d6565b60405180910390fd5b805181602001fd5b63150b7a0260e01b7bffffffffffffffffffffffffffffffffffffffffffffffffffffffff1916817bffffffffffffffffffffffffffffffffffffffffffffffffffffffff1916149150506118fd565b600190505b949350505050565b6060600082141561194d576040518060400160405280600181526020017f30000000000000000000000000000000000000000000000000000000000000008152509050611aad565b600082905060005b6000821461197f57808061196890612ab8565b915050600a8261197891906128e0565b9150611955565b60008167ffffffffffffffff8111156119c1577f4e487b7100000000000000000000000000000000000000000000000000000000600052604160045260246000fd5b6040519080825280601f01601f1916602001820160405280156119f35781602001600182028036833780820191505090505b5090505b60008514611aa657600182611a0c919061296b565b9150600a85611a1b9190612b01565b6030611a27919061288a565b60f81b818381518110611a63577f4e487b7100000000000000000000000000000000000000000000000000000000600052603260045260246000fd5b60200101907effffffffffffffffffffffffffffffffffffffffffffffffffffffffffffff1916908160001a905350600a85611a9f91906128e0565b94506119f7565b8093505050505b919050565b611abc8383611b30565b611ac9600084848461176e565b611b08576040517f08c379a0000000000000000000000000000000000000000000000000000000008152600401611aff906125d6565b60405180910390fd5b505050565b6000808273ffffffffffffffffffffffffffffffffffffffff163b119050919050565b600073ffffffffffffffffffffffffffffffffffffffff168273ffffffffffffffffffffffffffffffffffffffff161415611ba0576040517f08c379a0000000000000000000000000000000000000000000000000000000008152600401611b9790612716565b60405180910390fd5b611ba981610d2f565b15611be9576040517f08c379a0000000000000000000000000000000000000000000000000000000008152600401611be090612616565b60405180910390fd5b611bf560008383611764565b6001600360008473ffffffffffffffffffffffffffffffffffffffff1673ffffffffffffffffffffffffffffffffffffffff1681526020019081526020016000206000828254611c45919061288a565b92505081905550816002600083815260200190815260200160002060006101000a81548173ffffffffffffffffffffffffffffffffffffffff021916908373ffffffffffffffffffffffffffffffffffffffff160217905550808273ffffffffffffffffffffffffffffffffffffffff16600073ffffffffffffffffffffffffffffffffffffffff167fddf252ad1be2c89b69c2b068fc378daa952ba7f163c4a11628f55a4df523b3ef60405160405180910390a4611d0660008383611769565b5050565b828054611d1690612a55565b90600052602060002090601f016020900481019282611d385760008555611d7f565b82601f10611d5157805160ff1916838001178555611d7f565b82800160010185558215611d7f579182015b82811115611d7e578251825591602001919060010190611d63565b5b509050611d8c9190611d90565b5090565b5b80821115611da9576000816000905550600101611d91565b5090565b6000611dc0611dbb84612816565b6127f1565b905082815260208101848484011115611dd857600080fd5b611de3848285612a13565b509392505050565b600081359050611dfa816132a0565b92915050565b600081359050611e0f816132b7565b92915050565b600081359050611e24816132ce565b92915050565b600081519050611e39816132ce565b92915050565b600082601f830112611e5057600080fd5b8135611e60848260208601611dad565b91505092915050565b600081359050611e78816132e5565b92915050565b600060208284031215611e9057600080fd5b6000611e9e84828501611deb565b91505092915050565b60008060408385031215611eba57600080fd5b6000611ec885828601611deb565b9250506020611ed985828601611deb565b9150509250929050565b600080600060608486031215611ef857600080fd5b6000611f0686828701611deb565b9350506020611f1786828701611deb565b9250506040611f2886828701611e69565b9150509250925092565b60008060008060808587031215611f4857600080fd5b6000611f5687828801611deb565b9450506020611f6787828801611deb565b9350506040611f7887828801611e69565b925050606085013567ffffffffffffffff811115611f9557600080fd5b611fa187828801611e3f565b91505092959194509250565b60008060408385031215611fc057600080fd5b6000611fce85828601611deb565b9250506020611fdf85828601611e00565b9150509250929050565b60008060408385031215611ffc57600080fd5b600061200a85828601611deb565b925050602061201b85828601611e69565b9150509250929050565b60006020828403121561203757600080fd5b600061204584828501611e15565b91505092915050565b60006020828403121561206057600080fd5b600061206e84828501611e2a565b91505092915050565b60006020828403121561208957600080fd5b600061209784828501611e69565b91505092915050565b6120a98161299f565b82525050565b6120b8816129b1565b82525050565b60006120c982612847565b6120d3818561285d565b93506120e3818560208601612a22565b6120ec81612bee565b840191505092915050565b600061210282612852565b61210c818561286e565b935061211c818560208601612a22565b61212581612bee565b840191505092915050565b600061213b82612852565b612145818561287f565b9350612155818560208601612a22565b80840191505092915050565b600061216e60328361286e565b915061217982612bff565b604082019050919050565b600061219160258361286e565b915061219c82612c4e565b604082019050919050565b60006121b4601c8361286e565b91506121bf82612c9d565b602082019050919050565b60006121d760248361286e565b91506121e282612cc6565b604082019050919050565b60006121fa60198361286e565b915061220582612d15565b602082019050919050565b600061221d602c8361286e565b915061222882612d3e565b604082019050919050565b600061224060388361286e565b915061224b82612d8d565b604082019050919050565b6000612263602a8361286e565b915061226e82612ddc565b604082019050919050565b600061228660298361286e565b915061229182612e2b565b604082019050919050565b60006122a9602e8361286e565b91506122b482612e7a565b604082019050919050565b60006122cc60028361287f565b91506122d782612ec9565b600282019050919050565b60006122ef60208361286e565b91506122fa82612ef2565b602082019050919050565b600061231260fd8361287f565b915061231d82612f1b565b60fd82019050919050565b600061233560318361286e565b91506123408261304e565b604082019050919050565b6000612358602c8361286e565b91506123638261309d565b604082019050919050565b600061237b602f8361286e565b9150612386826130ec565b604082019050919050565b600061239e600a8361287f565b91506123a98261313b565b600a82019050919050565b60006123c160218361286e565b91506123cc82613164565b604082019050919050565b60006123e4601d8361287f565b91506123ef826131b3565b601d82019050919050565b600061240760318361286e565b9150612412826131dc565b604082019050919050565b600061242a604a8361287f565b91506124358261322b565b604a82019050919050565b61244981612a09565b82525050565b600061245b8285612130565b91506124678284612130565b91508190509392505050565b600061247e82612391565b91506124898261241d565b915061249482612305565b915061249f826122bf565b9150819050919050565b60006124b4826123d7565b91506124c08284612130565b915081905092915050565b60006020820190506124e060008301846120a0565b92915050565b60006080820190506124fb60008301876120a0565b61250860208301866120a0565b6125156040830185612440565b818103606083015261252781846120be565b905095945050505050565b600060408201905061254760008301856120a0565b6125546020830184612440565b9392505050565b600060208201905061257060008301846120af565b92915050565b6000602082019050818103600083015261259081846120f7565b905092915050565b600060608201905081810360008301526125b281866120f7565b90506125c16020830185612440565b6125ce60408301846120a0565b949350505050565b600060208201905081810360008301526125ef81612161565b9050919050565b6000602082019050818103600083015261260f81612184565b9050919050565b6000602082019050818103600083015261262f816121a7565b9050919050565b6000602082019050818103600083015261264f816121ca565b9050919050565b6000602082019050818103600083015261266f816121ed565b9050919050565b6000602082019050818103600083015261268f81612210565b9050919050565b600060208201905081810360008301526126af81612233565b9050919050565b600060208201905081810360008301526126cf81612256565b9050919050565b600060208201905081810360008301526126ef81612279565b9050919050565b6000602082019050818103600083015261270f8161229c565b9050919050565b6000602082019050818103600083015261272f816122e2565b9050919050565b6000602082019050818103600083015261274f81612328565b9050919050565b6000602082019050818103600083015261276f8161234b565b9050919050565b6000602082019050818103600083015261278f8161236e565b9050919050565b600060208201905081810360008301526127af816123b4565b9050919050565b600060208201905081810360008301526127cf816123fa565b9050919050565b60006020820190506127eb6000830184612440565b92915050565b60006127fb61280c565b90506128078282612a87565b919050565b6000604051905090565b600067ffffffffffffffff82111561283157612830612bbf565b5b61283a82612bee565b9050602081019050919050565b600081519050919050565b600081519050919050565b600082825260208201905092915050565b600082825260208201905092915050565b600081905092915050565b600061289582612a09565b91506128a083612a09565b9250827fffffffffffffffffffffffffffffffffffffffffffffffffffffffffffffffff038211156128d5576128d4612b32565b5b828201905092915050565b60006128eb82612a09565b91506128f683612a09565b92508261290657612905612b61565b5b828204905092915050565b600061291c82612a09565b915061292783612a09565b9250817fffffffffffffffffffffffffffffffffffffffffffffffffffffffffffffffff04831182151516156129605761295f612b32565b5b828202905092915050565b600061297682612a09565b915061298183612a09565b92508282101561299457612993612b32565b5b828203905092915050565b60006129aa826129e9565b9050919050565b60008115159050919050565b60007fffffffff0000000000000000000000000000000000000000000000000000000082169050919050565b600073ffffffffffffffffffffffffffffffffffffffff82169050919050565b6000819050919050565b82818337600083830152505050565b60005b83811015612a40578082015181840152602081019050612a25565b83811115612a4f576000848401525b50505050565b60006002820490506001821680612a6d57607f821691505b60208210811415612a8157612a80612b90565b5b50919050565b612a9082612bee565b810181811067ffffffffffffffff82111715612aaf57612aae612bbf565b5b80604052505050565b6000612ac382612a09565b91507fffffffffffffffffffffffffffffffffffffffffffffffffffffffffffffffff821415612af657612af5612b32565b5b600182019050919050565b6000612b0c82612a09565b9150612b1783612a09565b925082612b2757612b26612b61565b5b828206905092915050565b7f4e487b7100000000000000000000000000000000000000000000000000000000600052601160045260246000fd5b7f4e487b7100000000000000000000000000000000000000000000000000000000600052601260045260246000fd5b7f4e487b7100000000000000000000000000000000000000000000000000000000600052602260045260246000fd5b7f4e487b7100000000000000000000000000000000000000000000000000000000600052604160045260246000fd5b6000601f19601f8301169050919050565b7f4552433732313a207472616e7366657220746f206e6f6e20455243373231526560008201527f63656976657220696d706c656d656e7465720000000000000000000000000000602082015250565b7f4552433732313a207472616e736665722066726f6d20696e636f72726563742060008201527f6f776e6572000000000000000000000000000000000000000000000000000000602082015250565b7f4552433732313a20746f6b656e20616c7265616479206d696e74656400000000600082015250565b7f4552433732313a207472616e7366657220746f20746865207a65726f2061646460008201527f7265737300000000000000000000000000000000000000000000000000000000602082015250565b7f4552433732313a20617070726f766520746f2063616c6c657200000000000000600082015250565b7f4552433732313a206f70657261746f7220717565727920666f72206e6f6e657860008201527f697374656e7420746f6b656e0000000000000000000000000000000000000000602082015250565b7f4552433732313a20617070726f76652063616c6c6572206973206e6f74206f7760008201527f6e6572206e6f7220617070726f76656420666f7220616c6c0000000000000000602082015250565b7f4552433732313a2062616c616e636520717565727920666f7220746865207a6560008201527f726f206164647265737300000000000000000000000000000000000000000000602082015250565b7f4552433732313a206f776e657220717565727920666f72206e6f6e657869737460008201527f656e7420746f6b656e0000000000000000000000000000000000000000000000602082015250565b7f45524337323155524953746f726167653a2055524920736574206f66206e6f6e60008201527f6578697374656e7420746f6b656e000000000000000000000000000000000000602082015250565b7f227d000000000000000000000000000000000000000000000000000000000000600082015250565b7f4552433732313a206d696e7420746f20746865207a65726f2061646472657373600082015250565b7f50484e325a79423361575230614430694e4441774969426f5a576c6e6148513960008201527f496a45784d43492b4369416750484a6c5933516764326c6b64476739496a4d7760208201527f4d434967614756705a326830505349784d44416949484e306557786c50534a6d60408201527f615778734f6e4a6e596967794d4463734d546b314c4449314d696b376333527960608201527f6232746c4c5864705a48526f4f6a4d37633352796232746c4f6e4a6e5969677760808201527f4c4441734d436b694943382b4369416755323979636e6b7349486c766458496760a08201527f596e4a7664334e6c6369426b6232567a494735766443427a6458427762334a3060c08201527f49476c7562476c755a534254566b63754943414b5043397a646d633d2b00000060e082015250565b7f45524337323155524953746f726167653a2055524920717565727920666f722060008201527f6e6f6e6578697374656e7420746f6b656e000000000000000000000000000000602082015250565b7f4552433732313a20617070726f76656420717565727920666f72206e6f6e657860008201527f697374656e7420746f6b656e0000000000000000000000000000000000000000602082015250565b7f4552433732314d657461646174613a2055524920717565727920666f72206e6f60008201527f6e6578697374656e7420746f6b656e0000000000000000000000000000000000602082015250565b7f7b226e616d65223a202200000000000000000000000000000000000000000000600082015250565b7f4552433732313a20617070726f76616c20746f2063757272656e74206f776e6560008201527f7200000000000000000000000000000000000000000000000000000000000000602082015250565b7f646174613a6170706c69636174696f6e2f6a736f6e3b6261736536342c000000600082015250565b7f4552433732313a207472616e736665722063616c6c6572206973206e6f74206f60008201527f776e6572206e6f7220617070726f766564000000000000000000000000000000602082015250565b7f222c20226465736372697074696f6e223a2022412072656374616e67756c617260008201527f20626f782c2022696d616765223a2022646174613a696d6167652f7376672b7860208201527f6d6c3b6261736536342c00000000000000000000000000000000000000000000604082015250565b6132a98161299f565b81146132b457600080fd5b50565b6132c0816129b1565b81146132cb57600080fd5b50565b6132d7816129bd565b81146132e257600080fd5b50565b6132ee81612a09565b81146132f957600080fd5b5056fe416e204e465420772f20494420257320686173206265656e206d696e74656420746f2025734142434445464748494a4b4c4d4e4f505152535455565758595a6162636465666768696a6b6c6d6e6f707172737475767778797a303132333435363738392b2fa264697066735822122061535b206d74cf40cbc9227472f3498786c6036b40314ea8887bc5d1f6bc572a64736f6c63430008010033",
  "linkReferences": {},
  "deployedLinkReferences": {}
}